:1000000028B20020010200000103000001030000EB
:1000100001030000010300000103000000000000D4
:100020000000000000000000000000008D7D0000C6
:100030000103000000000000F97D0000097E0000BF
:1000400001030000F10200000111000001030000A3
:100050000103000001030000F5180000191C000056
:1000600091020000010300000103000001030000F1
:100070000103000001030000010300000103000070
:1000800001030000E1020000010300000103000081
:100090000103000001030000D10200000103000081
:1000A0000103000001030000010300000103000040
:1000B0000103000001030000000000000000000038
:1000C0000103000001030000010300000103000020
:1000D0000103000001030000010300000103000010
:1000E000010300000000000000000000000000000C
:1000F00000000000010300000000000001030000F8
:1001000000000000000000000000000000000000EF
:1001100000000000000000000000000000000000DF
:1001200000000000000000000000000000000000CF
:1001300000000000000000000000000000000000BF
:1001400000000000000000000000000000000000AF
:10015000000000000000000000000000000000009F
:10016000000000000000000000000000000000008F
:10017000000000000000000000000000000000007F
:10018000000000000000000000000000000000006F
:10019000000000000000000000000000000000005F
:1001A000000000000000000000000000000000004F
:1001B000000000000000000000000000000000003F
:1001C000000000000000000000000000000000002F
:1001D000000000000000000000000000000000001F
:1001E000000000000000000000000000000000000F
:1001F00000000000000000000000000000000000FF
:1002000080B500AF00F005F800F09CF800F025FA8A
:10021000FEE780B483B000AF114B7B60114B3B60B5
:1002200007E07A68131D7B603B68191D396012680E
:100230001A603B680C4A9342F3D30B4B3B6005E0DA
:100240003B6800221A603B6804333B603B68074A06
:100250009342F5D300BF0C37BD465DF8047B704771
:10026000CC5C0100000000209008002024920020B7
:1002700080B500AF0021002000F0E0FD00BF80BD90
:1002800080B500AF0021012000F0D8FD00BF80BD87
:1002900080B500AF0121012000F0D0FD00BF80BD7E
:1002A00080B500AF0021022000F0C8FD00BF80BD76
:1002B00080B500AF0121022000F0C0FD00BF80BD6D
:1002C00080B500AF0021032000F0B8FD00BF80BD65
:1002D00080B500AF0121032000F0B0FD00BF80BD5C
:1002E00080B500AF0221032000F0A8FD00BF80BD53
:1002F00080B500AF0321032000F0A0FD00BF80BD4A
:1003000080B500AF0421042000F098FD00BF80BD3F
:1003100080B400AF4FF0804301221A6000BF064B4B
:100320001B68002BFBD0054B054A1A6000BFBD4679
:100330005DF8047B704700BF00010040900800207A
:100340000090D00380B500AF044B1B68034A43F410
:1003500070031360FFF7DCFF00BF80BD88ED00E095
:1003600080B588B000AF7860304801F049F80023CC
:10037000FB610023BB6100237B6101233B61002300
:10038000FB604EE02A49FA6913469B001344CA18E1
:10039000BB69134401221A70322002F0BDF92449CE
:1003A000FA6913469B001344CA18BB691344002220
:1003B0001A70FA697B691344FB61BA693B6913449B
:1003C000BB61FB69002B07D1BB69002B04D1012362
:1003D0003B6100237B6121E0FB69002B07D1BB69F6
:1003E000042B04D100233B6101237B6116E0FB69F0
:1003F000042B08D1BB69042B05D14FF0FF333B61BF
:1004000000237B610AE0FB69042B07D1BB69002B49
:1004100004D100233B614FF0FF337B61FB68013364
:10042000FB60FB68632BADDDA9E700BF58500100FE
:100430009C08002080B586B000AF78602B4800F0A3
:10044000DFFF01237B6101233B610023FB6001236C
:10045000BB6027497A6913469B001344CA183B695D
:10046000134401221A70322002F056F920497A69A9
:1004700013469B001344CA183B69134400221A70A8
:100480007A69FB6813447B613A69BB6813443B613A
:100490007B69012B07D13B69012B04D10123BB6090
:1004A0000023FB6021E07B69012B07D13B69032B13
:1004B00004D10023BB600123FB6016E07B69032BA2
:1004C00008D13B69032B05D14FF0FF33BB600023FC
:1004D000FB600AE07B69032BBBD13B69012BB8D1E0
:1004E0000023BB604FF0FF33FB60B2E768500100B0
:1004F0009C08002080B584B000AF78600023FB60CA
:100500000023BB602B4800F07BFF2B4B1B7B83F051
:100510000103DAB2284B1A73642002F0FDF80020C0
:1005200000F0BAFB0346002B1ED0192002F0F4F8AD
:1005300000BF002000F0B0FB0346002BF9D1FB68A0
:10054000002B05D01D4B1B68184606F04FFE04E03B
:100550001A4B1B68184606F01FFEFB68002B0CBFE9
:1005600001230023DBB2FB60012000F095FB034672
:10057000002BCAD0192002F0CFF800BF012000F0F4
:100580008BFB0346002BF9D1BB68002B05D00C4B2D
:100590001B68184606F02AFE04E0094B1B68184643
:1005A00006F0FAFDBB68002B0CBF01230023DBB271
:1005B000BB60AAE7785001009C0800209408002046
:1005C0009808002080B584B000AF78600022002138
:1005D000134806F077FC0346124A136000220021FC
:1005E000114806F06FFC0346104A136000220021F8
:1005F0000F4806F067FCF8602721F86806F050FD08
:100600000023002201210B4807F0B4FAB86005214D
:10061000B86807F011FB00BF1037BD4680BD00BFB2
:1006200061030000940800203504000098080020B1
:10063000F50400009D0D000080B500AF00F0A2FAA7
:1006400000F00EFB0621282000F044FC14220321B8
:10065000002000F08BFF00BF80BD80B500AFFFF72A
:10066000EBFF0C4800F0CCFEC8224FF4FA61642086
:1006700000F0DCFF03F023FC00220021064806F016
:1006800021FC03F09BFC0221022000F0D7FB002399
:10069000184680BD88500100110B000000000000CA
:1006A000B0B586B000AF78604FF000037B610023E7
:1006B0003B614FF07E53FB600123BB607B681B787E
:1006C0002D2B55D14FF0FF33BB607B6801337B602E
:1006D0004EE07B681B782F2B41D97B681B78392B28
:1006E0003DD83B69002B19D07B681B78303B07EE67
:1006F000903AF8EEE76A97ED037AC6EE877A97EDBF
:10070000057A77EE277AC7ED057AD7ED037AB2EE50
:10071000047A67EE877AC7ED037A26E0786914F0E9
:10072000D3F84FF000021C4B14F026F902460B469A
:1007300014461D467B681B78303B184614F0B2F80F
:1007400002460B462046294613F060FF02460B4640
:100750001046194614F008FC03467B6105E07B68EF
:100760001B782E2B09D101233B617B6801337B6011
:100770007B681B78002BACD100E000BFBB6807EEA4
:10078000903AB8EEE77AD7ED057A67EE277AB0EEC1
:10079000670A1837BD46B0BD0000244080B586B05A
:1007A00000AFF860B9607A603B601B49F8680AF0F6
:1007B00047FE78617B69002B29D07969B8680AF017
:1007C000FFFF154900200AF03BFE78617B69002B92
:1007D0001BD07869FFF764FFF0EE407A7B68C3EDC9
:1007E000007A0D4900200AF02BFE78617B69002B0E
:1007F00009D07869FFF754FFF0EE407A3B68C3ED0B
:10080000007A032304E0022302E0012300E0002336
:1008100018461837BD4680BD9850010080B5A6B077
:1008200000AF786007F1700307F1740207F17801F7
:100830007868FFF7B3FFC7F89400D7F89430002B1F
:1008400040F3258107F17803974918460AF048FEDE
:100850000346002B09D1954800F0D2FD3223002237
:100860003221002001F010FE16E107F178039049D3
:1008700018460AF035FE0346002B09D18D4800F0DA
:10088000BFFD322301223221002001F0FDFD03E1F2
:1008900007F17803884918460AF022FE0346002B28
:1008A00009D1864800F0ACFD32230022322101201C
:1008B00001F0EAFDF0E007F17803814918460AF0FB
:1008C0000FFE0346002B09D17E4800F099FD32232C
:1008D00001223221012001F0D7FDDDE007F178038C
:1008E000794918460AF0FCFD0346002B05D17748EC
:1008F00000F086FD01F060FECEE007F17803744958
:1009000018460AF0EDFD0346002B17D1D7F89430B6
:10091000022B13D17B6F184613F0D6FF02460B460D
:100920006C4800F07CFD7B6F184613F0CDFF02464B
:100930000B4643EC102B01F0DFFCADE007F1780330
:10094000654918460AF0CCFD0346002B17D1D7F8AD
:100950009430022B13D17B6F184613F0B5FF02467B
:100960000B465E4800F05BFD7B6F184613F0ACFF52
:1009700002460B4643EC102B01F0CEFC8CE007F155
:100980007803574918460AF0ABFD0346002B0BD1FC
:1009900007F10C03184601F087FB07F10C03194619
:1009A000504800F03CFD77E007F178034E491846C7
:1009B0000AF096FD0346002B13D19FED390B01F091
:1009C0000FFD07EE900AF8EEE77AC7ED217AD7F827
:1009D000840013F079FF02460B46444800F01FFDE7
:1009E0005AE007F17803424918460AF079FD0346B8
:1009F000002B11D101F0A0FC07EE900AF8EEE77A87
:100A0000C7ED227AD7F8880013F05EFF02460B4646
:100A1000384800F004FD3FE007F1780336491846F6
:100A20000AF05EFD0346002B11D101F0A9FC07EE90
:100A3000900AF8EEE77AC7ED237AD7F88C0013F026
:100A400043FF02460B462D4800F0E9FC24E007F185
:100A500078032B4918460AF043FD0346002B11D1B9
:100A600001F0A6FC07EE900AF8EEE77AC7ED247ACB
:100A7000D7F8900013F028FF02460B46214800F0FB
:100A8000CEFC09E07968204800F0C9FC04E07968F0
:100A90001E4800F0C4FCFFE700BF9837BD4680BD8C
:100AA0009A9999999999B93F9C500100A0500100D9
:100AB000A8500100AC500100BC500100C050010022
:100AC000D0500100D4500100DC500100E45001007E
:100AD000F0500100F85001000C51010014510100C8
:100AE0002C510100345101004451010050510100CA
:100AF000645101006C5101008851010090510100C6
:100B0000A0510100A8510100BC510100D4510100C5
:100B100080B592B000AF00237B64194800F08EFAD4
:100B200000F024FA034687F8433097F843300A2B45
:100B300003D097F843300D2B11D13A467B6C134408
:100B400000221A70222304220321022001F066FCF5
:100B50003B461846FFF762FE00237B640BE07B6C8C
:100B60003E2B08DC7B6C5A1C7A6448333B4497F874
:100B7000432003F8482C0A2001F0CEFDD0E700BF47
:100B8000F051010080B582B000AF00237B6011E01E
:100B9000184A7B6813441B78184600F029FE154A52
:100BA0007B6813441B780021184600F08FFD7B689A
:100BB00001337B607B68042BEAD900233B6011E0A2
:100BC0000D4A3B6813441B78184600F0EBFD0A4AB7
:100BD0003B6813441B780021184600F077FD3B6802
:100BE00001333B603B68042BEAD900BF00BF0837E4
:100BF000BD4680BD645201006C52010080B485B0D6
:100C000000AF78600023FB601EE00023BB6015E0AE
:100C1000FA6813469B0013447A681A44BB6813446D
:100C200018780E49FA6813469B001344CA18BB682B
:100C3000134402461A70BB680133BB60BB68042BC7
:100C4000E6DDFB680133FB60FB68042BDDDD00BFE4
:100C500000BF1437BD465DF8047B70479C08002038
:100C600080B582B000AF00237B600AE0094A7B6850
:100C700013441B780C21184600F002FD7B680133F9
:100C80007B607B68012BF1D900BF00BF0837BD46F0
:100C900080BD00BF7452010080B584B000AF7860A1
:100CA0000B4A7B6813441B78184600F0C7FD0346C7
:100CB000002B14BF01230023DBB2FB60FB68002B79
:100CC0000CBF01230023DBB218461037BD4680BDA0
:100CD0007452010080B582B000AF00237B6009E050
:100CE000104A7B6813441B78184600F081FD7B682E
:100CF00001337B607B68042BF2D900233B6009E061
:100D0000094A3B6813441B78184600F04BFD3B68CA
:100D100001333B603B68042BF2D900BF00BF0837AA
:100D2000BD4680BD645201006C52010080B582B0A6
:100D300000AF78603960094A3B6813441B78184655
:100D400000F056FD064A7B6813441B78184600F0F5
:100D500029FD00BF0837BD4680BD00BF6C520100B1
:100D60006452010080B582B000AF78603960094AF2
:100D70003B6813441B78184600F014FD064A7B6854
:100D800013441B78184600F033FD00BF0837BD46FA
:100D900080BD00BF6C5201006452010080B582B07A
:100DA00000AF214B1B68214AD35C184600F020FDA0
:100DB0001D4B1B68591C1E4BA3FB01239A081346AD
:100DC0009B001344CA1A184B1A6000237B601DE075
:100DD000154B1A68174913469B001344CA187B68C1
:100DE00013441B78002B07D0134A7B6813441B78ED
:100DF000184600F0FDFC06E00F4A7B6813441B78A0
:100E0000184600F0CFFC7B6801337B607B68042BC5
:100E1000DEDD054B1B68054AD35C184600F0C2FCBA
:100E200000BF0837BD4680BDB808002064520100ED
:100E3000CDCCCCCC9C0800206C52010080B584B095
:100E400000AF786039600023FB6010E01E4AFB6849
:100E500013441B78184600F0A5FC1C4AFB68134499
:100E60001B78184600F0C4FCFB680133FB60FB688C
:100E7000042BEBDD144A3B6813441B78184600F042
:100E8000B7FC124A7B6813441B78184600F08AFCB2
:100E90000023BB6002E0BB680133BB60BB680C4A47
:100EA0009342F8DD094A7B6813441B78184600F02A
:100EB0009FFC0023BB6002E0BB680133BB60BB68E2
:100EC000034A9342F8DDDCE76C52010064520100F2
:100ED0003F420F0080B582B000AF78603960154B9B
:100EE00000221A600021386800F0F0FB00217868C9
:100EF00000F0C6FB386800F055FC0F4A3B681360F1
:100F00000E4A7B6813600E4B4FF0EB721A600D4B6C
:100F100000221A60074B04221A600B4B01221A6050
:100F20000A4B01221A600A4B00221A6000BF0837E0
:100F3000BD4680BD002500400C2500401425004022
:100F4000242500406C25004008200040002000407F
:100F50000821004080B400AF034B1B68DBB2184689
:100F6000BD465DF8047B70471825004080B483B00F
:100F700000AF00BF084B1B68002BFBD0074B1B6862
:100F8000FB71054B00221A60FB7918460C37BD46F1
:100F90005DF8047B704700BF082100401825004021
:100FA00080B586B000AF78607B687B6100233B61D1
:100FB000FFF7DCFF0346FB73FB7B0A2B0BD0FB7BAD
:100FC0000D2B08D07B695A1C7A61FA7B1A703B6939
:100FD00001333B61ECE77B6900221A703B691846DC
:100FE0001837BD4680BD80B483B000AF0346FB71A7
:100FF000044AFB79136000BF0C37BD465DF8047BE3
:10100000704700BF1C25004080B483B000AF03468A
:10101000FB71084AFB79136000BF074B1B68002B6C
:10102000FBD0054B00221A6000BF0C37BD465DF8AF
:10103000047B70471C2500401C21004080B584B013
:1010400000AF78607B68FB6007E0FB681B781846A0
:10105000FFF7DAFFFB680133FB60FB681B78002BAE
:10106000F3D100BF00BF1037BD4680BD80B483B050
:1010700000AF786039607B6803F00403002B12D066
:101080003B68002B06D01A4B1B68194A43F0040337
:10109000136005E0164B1B68154A23F00403136028
:1010A000144A3B6813607B6803F08003002B12D066
:1010B0003B68002B06D00E4B1B680D4A43F08003A3
:1010C000136005E00A4B1B68094A23F08003136094
:1010D000094A3B681360094B1B68084A43F0040344
:1010E000136000BF0C37BD465DF8047B704700BF3E
:1010F00004230040BC080020C008002000E100E0FC
:1011000080B500AF124B1B68002B0DD0114B1B6834
:10111000002B06D00F4B1B680F4A1268D2B2104644
:1011200098470B4B00221A600C4B1B68002B0DD00C
:101130000B4B1B68002B06D0094B1B68094A126831
:10114000D2B210469847054B00221A6000BF80BDFE
:1011500008210040BC080020182500401C21004048
:10116000C00800201C25004080B582B000AF786028
:1011700007E07B681B781846FFF746FF7B68013362
:101180007B607B681B78002BF3D10023184608375F
:10119000BD4680BDB0B590B000AFF860B9607A6070
:1011A0003D4B07F124041D460FCD0FC42B6823705F
:1011B0000023BB63FB68002B16D17B68002B0FDD7F
:1011C0003020FFF721FF2E20FFF71EFF02E0302026
:1011D000FFF71AFF7B685A1E7A60002BF7D158E0A0
:1011E0003020FFF711FF54E007F114030D33FB63C8
:1011F000FB6B00221A7024E07B68002B09DDBA6BC0
:101200007B689A4205D1FB6B013BFB63FB6B2E2293
:101210001A70FB6B013BFB63BA68FB68B3FBF2F12E
:1012200001FB02F29B1A40333B4413F81C2CFB6B6E
:101230001A70BB6B0133BB63BB68FA68B2FBF3F394
:10124000FB60FB68002BD7D1BA6B7B689A42D3DB7B
:10125000BA6B7B689A4219DC08E0FB6B013BFB63CD
:10126000FB6B30221A70BB6B0133BB63BA6B7B68BC
:101270009A42F2DBFB6B013BFB63FB6B2E221A7085
:10128000FB6B013BFB63FB6B30221A70F86BFFF7C3
:101290006BFF4037BD46B0BD7852010080B582B0CB
:1012A00000AF78607B68002B06DB7B6800220A2198
:1012B0001846FFF76FFF0AE02D20FFF7A5FE7B68B9
:1012C0005B4200220A211846FFF764FF00BF08377F
:1012D000BD4680BD80B582B000AF78600548FFF79D
:1012E00043FF002210217868FFF754FF00BF083742
:1012F000BD4680BD8C52010080B582B000AF87ED45
:10130000010AD7ED017A9FED187A67EE877AFDEE34
:10131000E77A17EE903A002B0EDBD7ED017A9FEDBE
:10132000127A67EE877AFCEEE77A02220A2117EE3C
:10133000900AFFF72FFF13E02D20FFF765FED7ED92
:10134000017AF1EE677A9FED087A67EE877AFCEE14
:10135000E77A02220A2117EE900AFFF71BFF00BF6F
:101360000837BD4680BD00BF0000C842B0B582B09E
:1013700000AF87ED000B4FF00002204BD7E90001D2
:1013800013F0FAFA02460B461046194613F0A4FD74
:101390000346002B13DB4FF00002184BD7E9000186
:1013A00013F0EAFA02460B461046194613F0BCFD4C
:1013B000034602220A211846FFF7ECFE1AE02D2010
:1013C000FFF722FE3C687B6883F000454FF0000287
:1013D0000A4B2046294613F0CFFA02460B46104628
:1013E000194613F0A1FD034602220A211846FFF711
:1013F000D1FE00BF0837BD46B0BD00BF0000594058
:1014000080B582B000AF78607868FFF7ADFE0A2043
:10141000FFF7FAFD002318460837BD4680BD0FB41C
:1014200080B586B000AF3B6A7B6107F124033B6067
:101430008FE07B691B78252B40F083807B6901332B
:101440007B617B691B78002B03D12520FFF7DCFD36
:1014500084E07B691B78633B152B69D801A252F8A5
:1014600023F000BFBD140000D114000031150000AE
:10147000F71400003115000031150000311500008F
:101480003115000031150000311500003115000044
:101490003115000031150000311500003115000034
:1014A000311500001F150000311500003115000036
:1014B0003115000031150000E31400003B681A1DCF
:1014C0003A601B68FB71FB791846FFF79DFD3DE014
:1014D0003B681A1D3A601B683B613869FFF7DEFE06
:1014E00034E03B681A1D3A601B683B613B69184653
:1014F000FFF7F0FE2AE03B68073323F0070303F110
:1015000008023A60D3E900231046194613F02CFD77
:101510000346BB6097ED020AFFF7EEFE16E03B685C
:101520001A1D3A601B68FB60F868FFF71DFE0DE0AE
:101530002520FFF769FD7B691B781846FFF764FDDE
:1015400004E07B691B781846FFF75EFD7B69013379
:101550007B617B691B78002B7FF46BAF00231846FF
:101560001837BD46BDE8804004B0704780B584B0F0
:1015700000AFF860B9607A60FB68184600F0FCF9CB
:101580001E2000F031F8B86800F0D2FA034A7B68F8
:10159000136000BF1037BD4680BD00BFC4080020E7
:1015A00080B500AF064B1B680021184600F08EF88E
:1015B000034B1B68184600F01BF900BF80BD00BF3D
:1015C000C408002080B500AF064B1B684FF4407183
:1015D000184600F07BF8034B1B68184600F0E2F851
:1015E00000BF80BDC408002080B483B000AF786025
:1015F000044A7B68136000BF0C37BD465DF8047B6E
:10160000704700BFC808002080B582B000AF786086
:101610003960054B1B683A681946786800F0C6F9CE
:1016200000BF0837BD4680BDC808002080B588B01F
:1016300000AFF860B9607A6014237B617A687B69D7
:1016400092FBF3F3FB61BA68FB68D21AFB6992FB69
:10165000F3F33B61FB68BB610AE07969B869FFF7A6
:10166000D3FFBA693B691344BB61FB69013BFB6172
:10167000FB69002BF1DC00BF00BF2037BD4680BDF9
:1016800080B485B000AF786039607B681F2B02D8CA
:101690004FF0A04300E00C4BFB607B681F2B02D98E
:1016A0007B68203B00E07B687B607B689A00FB687E
:1016B000134403F5E0631A463B68136000BF143718
:1016C000BD465DF8047B70470003005080B485B0D0
:1016D00000AF786039600123FB607B681F2B02D864
:1016E0004FF0A04300E0144BBB607B681F2B02D976
:1016F0007B68203B00E07B687B60BB6803F214538F
:101700001A6801217B6801FA03F3B96801F21451E8
:1017100013430B60FA683B6842EA03017B689A0056
:10172000BB68134403F5E0630A461A6000BF143730
:10173000BD465DF8047B70470003005080B485B05F
:1017400000AF786039607B681F2B02D84FF0A04350
:1017500000E0134BFB607B681F2B02D97B68203BAA
:1017600000E07B687B603B68012B09D1FB6803F5D7
:10177000A163194601227B6802FA03F30B6008E0BB
:10178000FB6803F20C53194601227B6802FA03F34B
:101790000B6000BF1437BD465DF8047B704700BF87
:1017A0000003005080B485B000AF78607B681F2BC9
:1017B00002D84FF0A04300E00C4BFB607B681F2B6E
:1017C00002D97B68203B00E07B687B60FB6803F507
:1017D000A163194601227B6802FA03F30B6000BF84
:1017E0001437BD465DF8047B704700BF000300500E
:1017F00080B485B000AF78607B681F2B02D84FF0B3
:10180000A04300E00C4BFB607B681F2B02D97B6878
:10181000203B00E07B687B60FB6803F20C531946B9
:1018200001227B6802FA03F30B6000BF1437BD4648
:101830005DF8047B704700BF0003005080B485B0A2
:1018400000AF78607B681F2B02D84FF0A04300E008
:101850000C4BFB607B681F2B02D97B68203B00E0B0
:101860007B687B60FB6803F5A2631A687B6842FAB9
:1018700003F303F0010318461437BD465DF8047BFB
:10188000704700BF0003005080B485B000AFF8601F
:10189000B9607A603B601349BB683A6841F823201D
:1018A000FB681A027B681B04134343F00101BA680A
:1018B0000D4B13449B000A461A600C4B1A68012119
:1018C000BB6801FA03F3094913430B60084B1B681B
:1018D000074A43F04003136000BF1437BD465DF86C
:1018E000047B7047CC0800204419001004630040BA
:1018F00000E100E080B582B000AF00237B6028E00B
:101900007B6803F1805303F5C2539B001B68002BD7
:101910001CD0164A7B6852F823305A1C13497B6846
:1019200041F82320124A7B6852F82330002B04D060
:101930000F4A7B6852F8233098477B6803F1805345
:1019400003F5C2539B001A46002313607B680133E2
:101950007B607B68072BD3DD064B1B680133054A90
:10196000136000BF0837BD4680BD00BFF0080020EF
:10197000CC080020EC08002080B483B000AF786071
:10198000074B05221A60074A7B681360064B012249
:101990001A6000BF0C37BD465DF8047B704700BF7E
:1019A0000CC5014060C5014000C5014080B487B04E
:1019B00000AFF860B9607A60FB687A6802FB03F3F5
:1019C000274A82FB03129211DB17D31A7B61254A47
:1019D000FB6892FBF3F37B82234A7B8A1360234BE1
:1019E000234A1A60234B02221A607B699A1E224BFB
:1019F0001A607B8ABA6802FB03F3204A82FB031257
:101A00005211DB17D31A9AB2194B1A807B8ABA6823
:101A100002FB03F3194A82FB03125211DB17D31A9C
:101A20009AB2134B5A80164B01221A6000BF154B15
:101A30001B68002BFBD0134B00221A60124B0122B3
:101A40001A6000BF114B1B68002BFBD00F4B00220C
:101A50001A6000BF1C37BD465DF8047B704700BFAD
:101A6000D34D621020A1070008C5014020C50140E8
:101A70001009002024C5014028C501401F85EB51F5
:101A800008C0014010C1014004C0014004C1014030
:101A900080B485B000AF78603960124A7B6892FBF1
:101AA000F3F3FB60104AFB6813603B68FA6802FBC3
:101AB00003F30E4AA2FB03235B099AB20C4B1A8074
:101AC0000C4B0B4A1A600C4B01221A600B4B002284
:101AD0001A600B4B01221A6000BF1437BD465DF837
:101AE000047B704720A1070008C501401F85EB510A
:101AF0001409002020C5014024C5014028C501402B
:101B000008C0014080B400AF074B01221A6000BF3B
:101B1000064B1B68002BFBD0044B00221A6000BF51
:101B2000BD465DF8047B704704C0014004C101401C
:101B300080B485B000AF7860124B01221A60124A5F
:101B40007B6801331360114B114A1A604FF4FA633A
:101B5000FB81FB8943F480539AB20E4B1A600E4B03
:101B600003221A600D4B1B680C4A43F0800313607C
:101B70000B4B02221A6000BF1437BD465DF8047B90
:101B8000704700BF00750040107500401875004098
:101B900000070200F8750040F075004000E100E029
:101BA0000073004080B582B000AF3B1D0121184694
:101BB00000F006F8BB889BB218460837BD4680BDCA
:101BC00080B483B000AF786039600E4A7B681360E0
:101BD0000D4A3B6813600D4B01221A600C4B012229
:101BE0001A600C4B00221A6000BF0A4B1B68002BC6
:101BF000FBD0084B00221A6000BF0C37BD465DF8D1
:101C0000047B70472C760040307600400070004026
:101C1000047000401809002080B400AF054B012279
:101C20001A60054B00221A6000BFBD465DF8047BB8
:101C3000704700BF18090020047100400000000038
:101C400090B583B000AF0120FFF7F8FD0346DBB28B
:101C50005B00DCB21120FFF7F1FD0346DBB223434A
:101C6000FB71374B1B78002B15D1FB79012B07D16A
:101C7000344B1A68344B1B681344324A136057E0E4
:101C8000FB79032B54D12F4B1A682F4B1B68D31AA7
:101C90002C4A13604CE02A4B1B78012B15D1FB79A1
:101CA000032B07D1274B1A68274B1B681344254A7F
:101CB00013603DE0FB79002B3AD1224B1A68224B8E
:101CC0001B68D31A1F4A136032E01D4B1B78032B8D
:101CD00015D1FB79022B07D11A4B1A681A4B1B68D6
:101CE0001344184A136023E0FB79002B20D1154BD5
:101CF0001A68154B1B68D31A124A136018E0104B70
:101D00001B78022B14D1FB79002B07D10D4B1A68DD
:101D10000D4B1B6813440B4A136009E0FB79032B3E
:101D200006D1084B1A68084B1B68D31A054A136082
:101D3000034AFB79137000BF0C37BD4690BD00BF4E
:101D400064090020200900200000002090B583B025
:101D500000AF1A20FFF772FD0346DBB25B00DCB276
:101D60000D20FFF76BFD0346DBB22343FB71374BBE
:101D70001B78002B15D1FB79012B07D1344B1A6846
:101D8000344B1B681344324A136057E0FB79032B32
:101D900054D12F4B1A682F4B1B68D31A2C4A13604F
:101DA0004CE02A4B1B78012B15D1FB79032B07D173
:101DB000274B1A68274B1B681344254A13603DE0E4
:101DC000FB79002B3AD1224B1A68224B1B68D31A9D
:101DD0001F4A136032E01D4B1B78032B15D1FB7992
:101DE000022B07D11A4B1A681A4B1B681344184A66
:101DF000136023E0FB79002B20D1154B1A68154B9B
:101E00001B68D31A124A136018E0104B1B78022B80
:101E100014D1FB79002B07D10D4B1A680D4B1B68B1
:101E200013440B4A136009E0FB79032B06D1084BDE
:101E30001A68084B1B68D31A054A1360034AFB79DA
:101E4000137000BF0C37BD4690BD00BF6509002070
:101E5000240900200400002080B500AF0C210120DF
:101E6000FFF70EFC0C211120FFF70AFC0C211A20B1
:101E7000FFF706FC0C210D20FFF702FC0C4B0322A0
:101E800001210120FFF700FD094B03220121112050
:101E9000FFF7FAFC074B032201211A20FFF7F4FC9D
:101EA000044B032201210D20FFF7EEFC00BF80BD93
:101EB000411C00004D1D000080B582B000AF78606D
:101EC0007B6807EE903AF8EEE77A9FED0F7AC7EE5F
:101ED000876A16EE900A12F0F7FC09A3D3E90023F3
:101EE00012F04AFD02460B461046194613F03CF824
:101EF000034607EE903AB0EE670A0837BD4680BD4C
:101F0000BEBCA37B2F1BD43F00000C432DE9B04384
:101F100086B000AF5C4B1A685C4B1B68D31A7B61C0
:101F20005B4B1A685B4B1B68D31A3B61564B1B68B3
:101F3000564A1360564B1B68564A13607869FFF780
:101F4000BBFF87ED030A3869FFF7B6FF87ED020A8A
:101F500097ED037AD7ED027A37EE277AF0EE006A32
:101F6000C7EE267AC7ED017A97ED027AD7ED037AAC
:101F700037EE677ADFED486AC7EE267AC7ED007A5A
:101F8000464B93ED007AD7ED007A77EE277A434BF4
:101F9000C3ED007A414B1B68184612F095FC0246CF
:101FA0000B469FED371B43EC102B07F06DFD53ECF8
:101FB000102B1046194612F0D7FF0346374A13601C
:101FC000374B1B68184612F07FFC04460D467868B4
:101FD00012F07AFC80468946304B1B68184612F096
:101FE00073FC02460B4643EC102B07F085FD53ECC7
:101FF000102B4046494612F0BFFC02460B462046D5
:10200000294612F003FB02460B461046194612F011
:10201000ABFF0346224A1360224B1B68184612F09E
:1020200053FC04460D46786812F04EFC8046894603
:102030001A4B1B68184612F047FC02460B4643EC4D
:10204000102B07F09DFD53EC102B4046494612F033
:1020500093FC02460B462046294612F0D7FA024668
:102060000B461046194612F07FFF03460D4A1360D7
:1020700000BF1837BD46BDE8B08300BFAFF3008096
:10208000182D4454FB211940200900202809002064
:10209000240900202C090020F6285C3E3809002085
:1020A00030090020340900202DE9B04388B006AF84
:1020B0007860124B1B68184612F006FC04460D4669
:1020C0000F4B1B68184612F0FFFB804689460D4BEC
:1020D0001B68184612F0F8FB02460B46CDE90423B4
:1020E000CDE90289CDE90045074A6421786809F005
:1020F00011F900BF0837BD46BDE8B08330090020A4
:1021000034090020380900209052010080B582B0C7
:1021100000AF786087ED000A7868FFF7CDFEB0EE7B
:10212000407AD7ED007AC7EE276AF0EE667AB0EE15
:10213000670A0837BD4680BD80B48DB000AF87ED1B
:10214000070AC7ED060A7861396187ED031AC7ED02
:10215000021A87ED012AC7ED002A97ED077AD7ED1D
:10216000067A77EE677AC7ED0B7A7B6993ED007A92
:10217000D7ED0B6AD7ED007A66EEA77A77EE277A6D
:102180007B69C3ED007A3B69D3ED007A97ED0B7A5A
:1021900077EE676A97ED007AC6EE877AC7ED0A7A1E
:1021A00097ED037AD7ED0B7A27EE277A7B69D3ED8B
:1021B000006AD7ED027A66EEA77A37EE277AD7ED76
:1021C000016AD7ED0A7A66EEA77A77EE277AC7ED2D
:1021D000097A3B69FA6A1A607B6A07EE903AB0EEB8
:1021E000670A3437BD465DF8047B704780B586B01A
:1021F00000AF87ED030AB86079602F4B1A682F4B48
:102200001B68D31A97ED030A1846FFF77FFF87ED87
:10221000050A2B4B1A682B4B1B68D31A97ED030A40
:102220001846FFF773FF87ED040A274BD3ED007ABA
:10223000264B93ED007A264BD3ED006A254B93EDA8
:10224000006AD7ED032AB0EE462AF0EE661AB0EE29
:10225000471A21492148D7ED050AB0EE670AFFF772
:102260006BFFF0EE407ABB68C3ED007A1C4BD3EDF8
:10227000007A1C4B93ED007A1B4BD3ED006A1B4B8D
:1022800093ED006AD7ED032AB0EE462AF0EE661A07
:10229000B0EE471A16491748D7ED040AB0EE670AA0
:1022A000FFF74AFFF0EE407A7B68C3ED007A00BF8B
:1022B0001837BD4680BD00BF200900202809002036
:1022C000240900202C0900203C09002008000020DF
:1022D00044090020480900205C090020540900201E
:1022E000400900200C0000204C090020500900206B
:1022F000600900205809002080B483B000AF87ED4A
:10230000010A044A7B68136000BF0C37BD465DF8C4
:10231000047B70473C09002080B483B000AF87ED98
:10232000010A044A7B68136000BF0C37BD465DF8A4
:10233000047B70474009002080B500AF0E4B1A683F
:102340000E4B1B68D31A184612F0ACFA08A3D3E957
:10235000002312F011FB02460B461046194612F0FC
:1023600003FE034607EE903AB0EE670A80BD00BF59
:102370004B9E1C3F1760853F240900202009002048
:1023800080B500AF074B1A68074B1B68D31A9FED47
:10239000070A1846FFF7BAFEF0EE407AB0EE670A79
:1023A00080BD00BF2009002028090020CDCCCC3DF5
:1023B00080B500AF074B1A68074B1B68D31A9FED17
:1023C000070A1846FFF7A2FEF0EE407AB0EE670A61
:1023D00080BD00BF240900202C090020CDCCCC3DBD
:1023E00080B584B000AF87ED010AFFF7C9FF87ED24
:1023F000030AFFF7DDFF87ED020A97ED037AD7EDB9
:10240000027A77EE277AB0EE007AC7EE876AF0EEAE
:10241000667AB0EE670A1037BD4680BD80B485B0DD
:1024200000AFF860B9607A603B60154B0422C3F8D6
:102430000C25144B4FF4FA621A60124B1A68104BB9
:10244000C3F808250E4AFB68C2F860350C4ABB6821
:10245000C2F864350A4A7B68C2F86835084A3B68A6
:10246000C2F86C35064B0222C3F81025044B01223A
:10247000C3F8002500BF1437BD465DF8047B7047E4
:1024800000D002406C09002080B485B000AFF86035
:10249000B9607A603B60FB68002B03D0FB68012BBE
:1024A00015D02AE03D4B01221A603D4B1B68BA68EB
:1024B00002FB03F33B4A82FB03125211DB17D31AD0
:1024C0009AB2394B1A80384B00225A8015E0334BB0
:1024D0004FF0FF321A60344B00221A80304B1B68D9
:1024E000BA6802FB03F32F4A82FB03125211DB1777
:1024F000D31A9AB22C4B5A8000BF7B68002B03D0B2
:102500007B68012B15D02AE0284B01221A60244B4E
:102510001B683A6802FB03F3224A82FB0312521142
:10252000DB17D31A9AB2204B9A801F4B0022DA8015
:1025300015E01E4B4FF0FF321A601B4B00229A80B1
:10254000174B1B683A6802FB03F3164A82FB03121F
:102550005211DB17D31A9AB2134BDA8000BF144B17
:10256000114AC3F82025124B0422C3F82425104B2E
:102570000022C3F828250E4B01229A6000BF0C4BA5
:10258000D3F80831002BFAD00A4B01221A7000BF91
:102590001437BD465DF8047B704700BF040000207F
:1025A0006C0900201F85EB517009002000000020FD
:1025B00000D002406809002080B400AF0F4B002219
:1025C0001A600F4B00221A600E4B1B78002B10D0A4
:1025D0000D4B01225A6000BF0B4BD3F80431002B86
:1025E000FAD0094B0022C3F80421064B00221A70CE
:1025F00000E000BFBD465DF8047B7047040000208A
:10260000000000206809002000D0024080B483B0A0
:1026100000AFEFF305837B607B68002B14BF0123C1
:102620000023DBB218460C37BD465DF8047B7047CB
:1026300080B483B000AFEFF310837B607B68002B26
:1026400005D1EFF311833B603B68002B01D00123E0
:1026500000E0002303F00103DBB218460C37BD464F
:102660005DF8047B704780B584B000AF78607B680C
:10267000002B06D16FF0030000F069FB6FF003033D
:1026800014E07968132003F0C2FB0346002B05D049
:10269000786800F07AFB0023FB6006E04FF0FF3023
:1026A00000F055FB4FF0FF33FB60FB681846103716
:1026B000BD4680BD80B584B000AF7860154BDB6847
:1026C0007A68D31A7B607B68002B02D07B68002B72
:1026D00006DA6FF0030000F03AFB6FF0030314E03A
:1026E0007968132003F093FB0346002B05D078682C
:1026F00000F055FB0023FB6006E04FF0FF3000F0D8
:1027000026FB4FF0FF33FB60FB6818461037BD46D1
:1027100080BD00BF1000002080B584B000AF78609D
:10272000786800F01EFBFFF771FF0346002B04D111
:10273000FFF77EFF0346002B07D06FF0050000F087
:1027400006FB6FF00503FB6007E07B68BB60B868C1
:10275000044B9C4600DF0346FB60FB6818461037BD
:10276000BD4680BD6726000080B584B000AF7860AC
:10277000786800F000FBFFF749FF0346002B04D107
:10278000FFF756FF0346002B07D06FF0050000F05F
:10279000DEFA6FF00503FB6007E07B68BB60B8689A
:1027A000044B9C4600DF0346FB60FB68184610376D
:1027B000BD4680BDB526000080B485B000AFF8608E
:1027C000B9607A6000BF1437BD465DF8047B70477E
:1027D00080B485B000AFF860B9607A603B6000BF3C
:1027E0001437BD465DF8047B704780B485B000AFF8
:1027F000F860B9607A6000BF1437BD465DF8047BAD
:10280000704780B485B000AFF860B9607A603B6013
:1028100000BF1437BD465DF8047B704780B483B0B9
:1028200000AF7860396000BF0C37BD465DF8047BAF
:10283000704780B485B000AFF860B9607A6000BFBF
:102840001437BD465DF8047B704780B483B000AF99
:10285000786000BF0C37BD465DF8047B704780B4DC
:1028600000AF00BFBD465DF8047B704780B400AF89
:1028700000BFBD465DF8047B704780B485B000AFF3
:10288000F860B9607A6000BF1437BD465DF8047B1C
:10289000704780B485B000AFF860B9607A6000BF5F
:1028A0001437BD465DF8047B704780B483B000AF39
:1028B000786000BF0C37BD465DF8047B704780B47C
:1028C00000AF00BFBD465DF8047B704780B400AF29
:1028D00000BFBD465DF8047B704780B400AF00BF09
:1028E000BD465DF8047B704780B483B000AF78606C
:1028F00000BF0C37BD465DF8047B704780B400AF65
:1029000000BFBD465DF8047B704780B483B000AF64
:10291000786000BF0C37BD465DF8047B704780B41B
:1029200083B000AF786000BF0C37BD465DF8047B14
:10293000704780B483B000AF786000BF0C37BD46ED
:102940005DF8047B704780B400AF00BFBD465DF802
:10295000047B704780B483B000AF786000BF0C3751
:10296000BD465DF8047B704780B483B000AF7860EB
:1029700000BF0C37BD465DF8047B704780B400AFE4
:1029800000BFBD465DF8047B704780B483B000AFE4
:10299000786000BF0C37BD465DF8047B704780B49B
:1029A00083B000AF786000BF0C37BD465DF8047B94
:1029B000704780B483B000AF786000BF0C37BD466D
:1029C0005DF8047B704780B483B000AF786000BFCF
:1029D0000C37BD465DF8047B704780B483B000AF10
:1029E0007860396000BF0C37BD465DF8047B7047E6
:1029F00080B483B000AF7860396000BF0C37BD464B
:102A00005DF8047B704780B485B000AFF860B960B2
:102A10007A6000BF1437BD465DF8047B704780B410
:102A200085B000AFF860B9607A6000BF1437BD466A
:102A30005DF8047B704780B483B000AF7860396084
:102A400000BF0C37BD465DF8047B704780B483B08F
:102A500000AF786000BF0C37BD465DF8047B70475F
:102A600080B483B000AF7860396000BF0C37BD46DA
:102A70005DF8047B704780B483B000AF7860396044
:102A800000BF0C37BD465DF8047B704780B483B04F
:102A900000AF7860396000BF0C37BD465DF8047B3D
:102AA000704780B483B000AF7860396000BF0C37E6
:102AB000BD465DF8047B704780B483B000AF78609A
:102AC000396000BF0C37BD465DF8047B704780B4A9
:102AD00083B000AF7860396000BF0C37BD465DF849
:102AE000047B704780B400AF00BFBD465DF8047B37
:102AF000704780B483B000AF786000BF0C37BD462C
:102B00005DF8047B704780B483B000AF786000BF8D
:102B10000C37BD465DF8047B704780B483B000AFCE
:102B2000786000BF0C37BD465DF8047B704780B409
:102B300083B000AF786000BF0C37BD465DF8047B02
:102B4000704780B483B000AF786000BF0C37BD46DB
:102B50005DF8047B704780B483B000AF786000BF3D
:102B60000C37BD465DF8047B704780B483B000AF7E
:102B7000786000BF0C37BD465DF8047B704780B4B9
:102B800083B000AF786000BF0C37BD465DF8047BB2
:102B9000704780B483B000AF786000BF0C37BD468B
:102BA0005DF8047B704780B483B000AF7860396013
:102BB00000BF0C37BD465DF8047B704780B483B01E
:102BC00000AF7860396000BF0C37BD465DF8047B0C
:102BD000704780B483B000AF786000BF0C37BD464B
:102BE0005DF8047B704780B483B000AF786000BFAD
:102BF0000C37BD465DF8047B704780B400AF00BF62
:102C0000BD465DF8047B704780B483B000AF786048
:102C100000BF0C37BD465DF8047B704780B483B0BD
:102C200000AF786000BF0C37BD465DF8047B70478D
:102C300080B483B000AF786000BF0C37BD465DF84C
:102C4000047B704780B485B000AFF860B9607A60EB
:102C500000BF1437BD465DF8047B704780B483B075
:102C600000AF7860396000BF0C37BD465DF8047B6B
:102C7000704780B483B000AF7860396000BF0C3714
:102C8000BD465DF8047B704780B483B000AF7860C8
:102C9000396000BF0C37BD465DF8047B704780B4D7
:102CA00083B000AF786000BF0C37BD465DF8047B91
:102CB000704780B483B000AF786000BF0C37BD466A
:102CC0005DF8047B704780B483B000AF786000BFCC
:102CD0000C37BD465DF8047B704780B485B000AF0B
:102CE000F860B9607A6000BF1437BD465DF8047BB8
:102CF000704780B485B000AFF860B9607A6000BFFB
:102D00001437BD465DF8047B704780B483B000AFD4
:102D1000786000BF0C37BD465DF8047B704780B417
:102D200085B000AFF860B9607A603B6000BF1437CF
:102D3000BD465DF8047B704780B483B000AF786017
:102D4000396000BF0C37BD465DF8047B704780B426
:102D500083B000AF786000BF0C37BD465DF8047BE0
:102D6000704780B483B000AF786000BF0C37BD46B9
:102D70005DF8047B704780B483B000AF786000BF1B
:102D80000C37BD465DF8047B704780B483B000AF5C
:102D9000786000BF0C37BD465DF8047B704780B497
:102DA00083B000AF786000BF0C37BD465DF8047B90
:102DB000704780B483B000AF786000BF0C37BD4669
:102DC0005DF8047B704780B483B000AF78603960F1
:102DD00000BF0C37BD465DF8047B704780B483B0FC
:102DE00000AF7860396000BF0C37BD465DF8047BEA
:102DF000704780B485B000AFF8607A603B600B46E6
:102E0000FB7200BF1437BD465DF8047B704780B489
:102E100083B000AF7860396000BF0C37BD465DF805
:102E2000047B704780B483B000AF7860396000BF26
:102E30000C37BD465DF8047B704780B483B000AFAB
:102E40007860396000BF0C37BD465DF8047B704781
:102E500080B483B000AF786000BF0C37BD465DF82A
:102E6000047B704780B483B000AF786000BF0C373C
:102E7000BD465DF8047B704780B483B000AF7860D6
:102E800000BF0C37BD465DF8047B704780B483B04B
:102E900000AF7860396000BF0C37BD465DF8047B39
:102EA000704780B483B000AF786000BF0C37BD4678
:102EB0005DF8047B704780B483B000AF786000BFDA
:102EC0000C37BD465DF8047B704780B483B000AF1B
:102ED0007860396000BF0C37BD465DF8047B7047F1
:102EE00080B483B000AF786000BF0C37BD465DF89A
:102EF000047B704780B483B000AF7860396000BF56
:102F00000C37BD465DF8047B704780B483B000AFDA
:102F10007860396000BF0C37BD465DF8047B7047B0
:102F200080B483B000AF7860396000BF0C37BD4615
:102F30005DF8047B704780B483B000AF786039607F
:102F400000BF0C37BD465DF8047B704780B483B08A
:102F500000AF7860396000BF0C37BD465DF8047B78
:102F6000704780B483B000AF7860396000BF0C3721
:102F7000BD465DF8047B704780B483B000AF7860D5
:102F8000396000BF0C37BD465DF8047B704780B4E4
:102F900085B000AFF860B9607A603B6000BF14375D
:102FA000BD465DF8047B704780B485B000AFF86023
:102FB000B9607A603B6000BF1437BD465DF8047BA2
:102FC000704780B483B000AF786000BF0C37BD4657
:102FD0005DF8047B704780B485B000AFF860B960DD
:102FE0007A603B6000BF1437BD465DF8047B7047D4
:102FF00080B485B000AFF860B9607A6000BF143764
:10300000BD465DF8047B704780B483B000AF786044
:1030100000BF0C37BD465DF8047B704780B483B0B9
:1030200000AF786000BF0C37BD465DF8047B704789
:1030300080B483B000AF7860396000BF0C37BD4604
:103040005DF8047B704780B483B000AF786000BF48
:103050000C37BD465DF8047B704780B483B000AF89
:103060007860396000BF0C37BD465DF8047B70475F
:1030700080B483B000AF7860396000BF0C37BD46C4
:103080005DF8047B704780B483B000AF786039602E
:1030900000BF0C37BD465DF8047B704780B483B039
:1030A00000AF7860396000BF0C37BD465DF8047B27
:1030B000704780B483B000AF786000BF0C37BD4666
:1030C0005DF8047B704780B483B000AF78603960EE
:1030D00000BF0C37BD465DF8047B704780B483B0F9
:1030E00000AF786000BF0C37BD465DF8047B7047C9
:1030F00080B483B000AF786000BF0C37BD465DF888
:10310000047B704780B483B000AF7860396000BF43
:103110000C37BD465DF8047B704780B483B000AFC8
:103120007860396000BF0C37BD465DF8047B70479E
:1031300080B483B000AF786000BF0C37BD465DF847
:10314000047B704780B483B000AF786000BF0C3759
:10315000BD465DF8047B704780B483B000AF7860F3
:10316000396000BF0C37BD465DF8047B704780B402
:1031700085B000AFF860B9607A6000BF1437BD4613
:103180005DF8047B704780B483B000AF786039602D
:1031900000BF0C37BD465DF8047B704780B483B038
:1031A00000AF7860396000BF0C37BD465DF8047B26
:1031B000704780B483B000AF7860396000BF0C37CF
:1031C000BD465DF8047B704780B483B000AF786083
:1031D000396000BF0C37BD465DF8047B704780B492
:1031E00083B000AF786000BF0C37BD465DF8047B4C
:1031F000704780B483B000AF7860396000BF0C378F
:10320000BD465DF8047B704780B483B000AF786042
:1032100000BF0C37BD465DF8047B704780B483B0B7
:1032200000AF786000BF0C37BD465DF8047B704787
:1032300080B483B000AF7860396000BF0C37BD4602
:103240005DF8047B704780B483B000AF786039606C
:1032500000BF0C37BD465DF8047B704780B483B077
:1032600000AF786000BF0C37BD465DF8047B704747
:1032700080B483B000AF786000BF0C37BD465DF806
:10328000047B704780B483B000AF7860396000BFC2
:103290000C37BD465DF8047B704780B485B000AF45
:1032A000F860B9607A6000BF1437BD465DF8047BF2
:1032B000704780B483B000AF7860396000BF0C37CE
:1032C000BD465DF8047B704780B483B000AF786082
:1032D000396000BF0C37BD465DF8047B704780B491
:1032E00083B000AF7860396000BF0C37BD465DF831
:1032F000047B704780B483B000AF7860396000BF52
:103300000C37BD465DF8047B704780B483B000AFD6
:10331000786000BF0C37BD465DF8047B704780B411
:1033200083B000AF7860396000BF0C37BD465DF8F0
:10333000047B704780B483B000AF786000BF0C3767
:10334000BD465DF8047B704780B483B000AF786001
:10335000396000BF0C37BD465DF8047B704780B410
:1033600083B000AF7860396000BF0C37BD465DF8B0
:10337000047B704780B483B000AF7860396000BFD1
:103380000C37BD465DF8047B704780B483B000AF56
:103390007860396000BF0C37BD465DF8047B70472C
:1033A00080B483B000AF7860396000BF0C37BD4691
:1033B0005DF8047B704780B483B000AF78603960FB
:1033C00000BF0C37BD465DF8047B704780B483B006
:1033D00000AF7860396000BF0C37BD465DF8047BF4
:1033E000704780B483B000AF786000BF0C37BD4633
:1033F0005DF8047B704780B483B000AF786000BF95
:103400000C37BD465DF8047B704780B483B000AFD5
:103410007860396000BF0C37BD465DF8047B7047AB
:1034200080B485B000AFF860B9607A6000BF14372F
:10343000BD465DF8047B704780B483B000AF786010
:10344000396000BF0C37BD465DF8047B704780B41F
:1034500083B000AF7860396000BF0C37BD465DF8BF
:10346000047B704780B485B000AFF860B9603B6002
:103470001346FB7100BF1437BD465DF8047B7047EF
:1034800080B485B000AFF860B9607A6000BF1437CF
:10349000BD465DF8047B704780B483B000AF7860B0
:1034A00000BF0C37BD465DF8047B704780B483B025
:1034B00000AF7860396000BF0C37BD465DF8047B13
:1034C000704780B483B000AF7860396000BF0C37BC
:1034D000BD465DF8047B704780B483B000AF786070
:1034E000396000BF0C37BD465DF8047B704780B47F
:1034F00085B000AFF860B9607A603B6000BF1437F8
:10350000BD465DF8047B704780B485B000AFF860BD
:10351000B9607A6000BF1437BD465DF8047B704720
:1035200080B483B000AF786000BF0C37BD465DF853
:10353000047B704780B483B000AF7860396000BF0F
:103540000C37BD465DF8047B704780B483B000AF94
:103550007860396000BF0C37BD465DF8047B70476A
:1035600080B483B000AF7860396000BF0C37BD46CF
:103570005DF8047B704780B483B000AF7860396039
:1035800000BF0C37BD465DF8047B704780B483B044
:1035900000AF7860396000BF0C37BD465DF8047B32
:1035A000704780B483B000AF7860396000BF0C37DB
:1035B000BD465DF8047B704780B483B000AF78608F
:1035C00000BF0C37BD465DF8047B704780B483B004
:1035D00000AF786000BF0C37BD465DF8047B7047D4
:1035E00080B483B000AF786000BF0C37BD465DF893
:1035F000047B704780B483B000AF786000BF0C37A5
:10360000BD465DF8047B704780B400AF044BDB68B7
:103610001B0A03F007031846BD465DF8047B70479C
:1036200000ED00E080B483B000AFEFF314837B6063
:103630007B6803F00103002B0CBF01230023DBB2E6
:1036400018460C37BD465DF8047B704780B483B0E4
:1036500000AFEFF305837B607B68002B14BF012371
:103660000023DBB218460C37BD465DF8047B70477B
:1036700080B483B000AFEFF310837B607B68002BD6
:1036800005D1EFF311833B603B68002B01D0012390
:1036900000E0002303F00103DBB218460C37BD46FF
:1036A0005DF8047B704780B584B000AF154BFF22F6
:1036B00083F82220134B93F82230DBB263F0FF0330
:1036C000DB437B607B68002B01D1202303E07B6818
:1036D000B3FA83F3DBB2C3F12003FB60FFF794FF7F
:1036E000B860BA68FB689A4202D3BB680133FB60DA
:1036F000FE22FB689A40034BD2B2DA7700BF103744
:10370000BD4680BD00ED00E080B400AF054B5B68B6
:103710001B0EDBB203F01003DBB21846BD465DF8AA
:10372000047B704700ED00E080B400AF044B4FF025
:1037300000625A6000BFBD465DF8047B704700BF61
:1037400000ED00E080B400AF044B4FF080525A60AF
:1037500000BFBD465DF8047B704700BF00ED00E090
:1037600080B400AF034B1B7A1846BD465DF8047B5E
:10377000704700BF1000002080B500AF04F0C4FB0C
:10378000084B01225A72BFF34F8F00BFFFF7BCFFF7
:103790000346002B04D0FFF7C7FF024B01229A72A9
:1037A00000BF80BD1000002080B500AF094B002293
:1037B0005A72BFF34F8F00BF064B9B7A002B04D089
:1037C000044B00229A72FFF7BDFF04F07FFB00BF9D
:1037D00080BD00BF1000002080B485B000AF4FF066
:1037E000FF33FB600E4BDB6ABB60BB68002B02D073
:1037F000BB68DB69FB600A4B5B6C7B607B68002B02
:1038000007D07B681B69FA689A4202D97B681B69FA
:10381000FB60FB6818461437BD465DF8047B7047B3
:103820001000002080B500AF344B1B7A012B03D170
:10383000FFF71CF8002320E1304B1B7A002B06D049
:103840004FF0FF30FFF701F84FF0FF3315E12C4B3D
:10385000DB682A4AD3652A4B1A8A284BA3F85420DE
:10386000274B9B68254A1364254BDB6A244A126B5D
:103870001146184600F017FD0346002B04D0204BDC
:10388000DB6A1E4AC2F880301D4B5B691C4A926994
:103890001146184600F007FD0346002B04D0184BD4
:1038A0005B69164A536704E0144BD3F88030134A1F
:1038B0005367134BDB69124A126A1146184600F02F
:1038C000F2FC0346002B04D00D4BDB690B4A9367D7
:1038D00004E00A4BD3F88030084A9367084B5B6AD0
:1038E000074A926A1146184600F0DDFC0346002B99
:1038F00008D0034B5B6A014AD36708E01000002040
:10390000085301005E4BD3F880305D4AD3675D4BAE
:103910005B6B002B11D05B4B586B5A4B5B6B196880
:10392000584B5B6B9A68574B5B6BDB6800F09AFEF9
:10393000544B5B6B524AC2F88430524B9B6B002B4A
:1039400011D0504B986B4F4B9B6B19684D4B9B6B39
:103950009A684C4B9B6BDB6800F084FE494B9B6B79
:10396000474AC2F88830474BDB6B002B11D0454BE0
:10397000D86B444BDB6B1968424BDB6B9A68414B4D
:10398000DB6BDB6800F06EFE3E4BDB6B3C4AC2F843
:103990008C303C4B1B6C002B11D03A4B186C394BC4
:1039A0001B6C1968374B1B6C9A68364B1B6CDB68B9
:1039B00000F058FE334B1B6C314AC2F89030314B4B
:1039C0005B6C002B11D02F4B586C2E4B5B6C196825
:1039D0002C4B5B6C9A682B4B5B6CDB6800F042FEF7
:1039E000284B5B6C264AC2F89430264B9B6C002B0C
:1039F00011D0244B986C234B9B6C1968214B9B6C0A
:103A00009A68204B9B6CDB6800F02CFE1D4B9B6C76
:103A10001B4AC2F898301B4BDB6C002B11D0194BA2
:103A2000D86C184BDB6C1968164BDB6C9A68154B1D
:103A3000DB6CDB6800F016FE124BDB6C104AC2F840
:103A40009C30104B1B6D002B11D00E4B186D0D4B85
:103A50001B6D19680B4B1B6D9A680A4B1B6DDB685D
:103A600000F000FE074B1B6D054AC2F8A030044B66
:103A700001221A72FEF7FAFE0023184680BD00BF2D
:103A8000100000200853010080B586B000AFF86038
:103A9000B9607A60FB68002B05D0FB68104A1A6099
:103AA000FB68104A5A60BB68002B0FD07B68002B64
:103AB0000CD07B680B2B02D90B237B6101E07B6868
:103AC0007B617A690849B86807F0D8FE7A68B968F6
:103AD000F868FEF7DEFE002318461837BD4680BDA5
:103AE00013543101D4B3FB029C52010080B582B063
:103AF00000AFFFF735FE78607868FEF7D6FE7B688A
:103B000018460837BD4680BD80B584B000AF2E4B47
:103B10001B7A012B06D06FF00600FEF796FE4FF0E1
:103B2000FF334CE003F08CF9034683F00103DBB272
:103B3000002B06D04FF0FF30FEF787FE4FF0FF332B
:103B40003DE0FFF7B0FD214B5B682149184604F0CA
:103B500085F90346002B06D04FF0FF30FEF775FEC7
:103B60004FF0FF332BE004F0FBF90346164A1361D4
:103B700004F0ACF9174801F073FEF860F86802F041
:103B8000CBF8124B1B6803F00103002B08D0022373
:103B9000BB60BB6883F31488BFF36F8F00BF08E07E
:103BA00003237B607B6883F31488BFF36F8F00BFB0
:103BB00000BF054B02221A72FEF788FE002318464A
:103BC0001037BD4680BD00BF100000200853010023
:103BD000097E00002C00002080B582B000AF114BA0
:103BE0001B7A022B02D0032B09D00EE00D4B0322CF
:103BF0001A720020FEF778FE00237B600DE00120A2
:103C0000FEF772FE01237B6007E04FF0FF30FEF706
:103C10001CFE4FF0FF337B6000BF7B6818460837FF
:103C2000BD4680BD1000002080B582B000AF114BB2
:103C30001B7A022B02D0032B06D00EE00020FEF7E9
:103C400064FE00237B6010E00A4B02221A720120FE
:103C5000FEF75BFE01237B6007E04FF0FF30FEF7CD
:103C6000F4FD4FF0FF337B6000BF7B6818460837D8
:103C7000BD4680BD1000002080B584B000AF7860E4
:103C8000194B1B7A023B012B21D87B68002B03D0F8
:103C90007B68012B09D011E0134B02221A7200201D
:103CA000FEF747FE0023FB6010E00F4B03221A7261
:103CB0000120FEF73EFE0123FB6007E04FF0FF30DE
:103CC000FEF7C3FD4FF0FF33FB6000BF07E04FF08E
:103CD000FF30FEF7BAFD4FF0FF33FB6000BFFB681B
:103CE00018461037BD4680BD1000002080B582B058
:103CF00000AF0D4B1B7A022B05D06FF00700FEF7CB
:103D0000A4FD00230BE0FFF737FD074B04221A72D6
:103D1000FFF762FD78607868FEF71CFE7B68184646
:103D20000837BD4680BD00BF1000002080B588B0B8
:103D300000AF78602B4B1B7A042B02D0FEF71EFEDF
:103D40004DE0FFF749FDB8617A68BB699A4203D339
:103D5000BB69013BFB6101E07B68FB61214BDB6AD6
:103D60007B617B69002B05D07B69DA69FB69D21A1C
:103D70007B69DA611B4B5B6C3B613B69002B05D0B7
:103D80003B691A69FB69D21A3B691A61154BDB68FA
:103D90007A681344FB60134BDA68FB691344114AD9
:103DA000D3600DE00F4BDB6801330E4AD36001F0A6
:103DB000BFFE0C4B1B6D002B02D00A4B1B6D9847AE
:103DC000084BDB68FA689A42ECD1064B02221A7261
:103DD000002001F0B5FFFFF7E7FCFEF7CFFD20372D
:103DE000BD4680BD1000002080B500AF044BDB68ED
:103DF0001846FEF7CAFD024BDB68184680BD00BFBF
:103E00001000002080B500AF044B5B681846FEF739
:103E1000C6FD024B5B68184680BD00BF0853010019
:103E200080B582B000AF114BDB687B6004F0B8F85E
:103E3000386004F0C7F80346002B05D004F0B0F852
:103E400038607B6801337B6004F09EF802467B6833
:103E500002FB03F33A6813443B603868FEF7A9FDA0
:103E60003B6818460837BD4680BD00BF10000020E3
:103E700080B582B000AF04F07CF878607868FEF717
:103E8000A2FD7B6818460837BD4680BD80B400AFF0
:103E900000BFBD465DF8047B704780B582B000AFBF
:103EA0007860396039687868FEF797FD3968786816
:103EB00003F0BBFF034618460837BD4680BD80B5FA
:103EC00082B000AFFFF7E2FFFEF7C9FCFFF7BEFBD1
:103ED0000346002B04D1FFF7CBFB0346002B07D092
:103EE0006FF00500FEF7B1FC6FF005037B6004E0A6
:103EF000044B9C4600DF03467B607B68184608370E
:103F0000BD4680BD2538000080B588B000AFF860A0
:103F1000B9607A607A68B968F868FEF7AEFCFFF7B6
:103F200095FB0346002B09D1FFF7A2FB0346002BAC
:103F300004D1FFF777FB0346002B06D07A68B968F7
:103F4000F868FFF7A1FDF8610FE0FB68BB61BB6893
:103F50007B617B683B61BB6918467B6919463A699E
:103F6000044B9C4600DF0346FB61FB691846203783
:103F7000BD4680BD893A000080B582B000AFFFF732
:103F800065FB0346002B09D1FFF772FB0346002BAC
:103F900004D1FFF747FB0346002B03D0FFF7A6FD34
:103FA000786004E0044B9C4600DF03467B607B683E
:103FB00018460837BD4680BDED3A000080B582B096
:103FC00000AFFEF77CFCFFF741FB0346002B04D15A
:103FD000FFF74EFB0346002B07D06FF00500FEF7FE
:103FE00034FC6FF005037B6004E0054B9C4600DF6A
:103FF00003467B607B6818460837BD4680BD00BF1E
:10400000093B000080B582B000AFFEF766FCFFF709
:104010001DFB0346002B04D1FFF72AFB0346002BB0
:1040200007D06FF00500FEF710FC6FF005037B6012
:1040300004E0054B9C4600DF03467B607B68184626
:104040000837BD4680BD00BFD93B000080B582B0B7
:1040500000AFFEF753FCFFF7F9FA0346002B04D13B
:10406000FFF706FB0346002B07D06FF00500FEF7B5
:10407000ECFB6FF005037B6004E0054B9C4600DF22
:1040800003467B607B6818460837BD4680BD00BF8D
:10409000293C000080B584B000AF78607868FEF7F6
:1040A0003EFCFFF7D3FA0346002B04D1FFF7E0FAFA
:1040B0000346002B07D06FF00500FEF7C6FB6FF03C
:1040C0000503FB6008E07B68BB60BB681846054BD6
:1040D0009C4600DF0346FB60FB6818461037BD4670
:1040E00080BD00BF793C000080B582B000AFFEF714
:1040F0002AFCFFF7ABFA0346002B04D1FFF7B8FA0E
:104100000346002B06D06FF00500FEF79EFB002350
:104110007B6004E0044B9C4600DF03467B607B68C9
:1041200018460837BD4680BDED3C000080B584B020
:1041300000AF78607868FEF717FCFFF787FA034650
:10414000002B04D1FFF794FA0346002B04D06FF044
:104150000500FEF77AFB05E07B68FB60F868034B1F
:104160009C4600DF00BF1037BD4680BD2D3D0000DE
:1041700080B582B000AFFFF769FA0346002B04D187
:10418000FFF776FA0346002B03D0FFF72DFE786089
:1041900004E0054B9C4600DF03467B607B681846C5
:1041A0000837BD4680BD00BFE93D000080B582B044
:1041B00000AFFFF74BFA0346002B04D1FFF758FA84
:1041C0000346002B03D0FFF71DFE786004E0054B8B
:1041D0009C4600DF03467B607B6818460837BD4677
:1041E00080BD00BF053E000080B582B000AFFFF784
:1041F0002DFA0346002B04D1FFF73AFA0346002BB1
:1042000003D0FFF70DFE786004E0054B9C4600DF0D
:1042100003467B607B6818460837BD4680BD00BFFB
:10422000213E000080B582B000AFFFF70FFA0346D1
:10423000002B04D1FFF71CFA0346002B03D0FFF735
:1042400017FE786004E0054B9C4600DF03467B6068
:104250007B6818460837BD4680BD00BF713E000030
:1042600080B500AFFFF72BFE00BF80BD80B483B0E8
:1042700000AF78607B6818460C37BD465DF8047B5C
:10428000704780B485B000AF786039607B683A6869
:104290001344FB60FB68BB60BB6818461437BD461F
:1042A0005DF8047B704780B584B000AF78603960FA
:1042B0007B68002B0CD07B6803F00703002B07D131
:1042C0003B6803F00703002B02D13B68172B06D88D
:1042D000002239687868FEF76FFA002328E07868D2
:1042E000FFF7C4FFF860FB683A681A60FB681022A9
:1042F0005A6008217868FFF7C4FFB8603B68083B44
:1043000019467868FFF7BDFF0246BB681A60BB68B4
:104310001B6800221A60BB681B6810225A60BB68C9
:1043200000225A60012239687868FEF745FA0123B5
:1043300018461037BD4680BD90B58BB000AFF86011
:10434000B9607A60FB68002B05D0BB68002B02D0F7
:104350007B68032B07D900237A68B968F868FEF7F1
:1043600037FA002380E0BB680833FB61FB69073341
:1043700023F00703FB610821F868FFF782FF38622A
:104380003B6A1B681A463B6AD31ABB613B6A5B688F
:1043900023F00303BA69D31ABB61BA69FB699A4275
:1043A0000ED23B6A1B683B623B6A1B68002BE7D15D
:1043B00000237A68B968F868FEF70AFA002353E028
:1043C00000BFF868FFF752FF03465968FA690A44CC
:1043D0005A60F868FFF74AFF03461B68083B194616
:1043E000F868FFF74EFF78617B695C68F868FFF753
:1043F0003DFF03465B689C4206D2F868FFF736FF34
:1044000003465A687B695A603B6A5B68002B0AD195
:10441000FA697B681A433B6A5A600821386AFFF7D9
:1044200030FF786219E03B6A5B6823F003031946AA
:10443000386AFFF726FF78613B6A1A687B691A6061
:10444000FA697B681A437B695A603B6A7A691A6029
:1044500008217869FFF715FF78627B6A7A68B96886
:10446000F868FEF7B5F97B6A18462C37BD4690BD53
:1044700080B586B000AF786039607B68002B02D0D1
:104480003B68002B06D1002239687868FEF7ADF949
:1044900000233EE000213868FFF7F3FEF860FB6878
:1044A000083BFB6000233B6108217868FFF7E9FEC9
:1044B00078610EE07B693B617B691B687B617B698E
:1044C000002B06D1002239687868FEF78EF90023A8
:1044D0001FE07A69FB689A42ECD17868FFF7C6FE64
:1044E000034659687A69526822F003028A1A5A60B0
:1044F0003B69002B03D17B6900225A6003E07B6992
:104500001A683B691A60012239687868FEF76DF90C
:10451000012318461837BD4680BD000080B483B023
:1045200000AFEFF305837B607B68002B14BF012392
:104530000023DBB218460C37BD465DF8047B70479C
:1045400080B483B000AFEFF310837B607B68002BF7
:1045500005D1EFF311833B603B68002B01D00123B1
:1045600000E0002303F00103DBB218460C37BD4620
:104570005DF8047B704790B482B000AF78607B68D0
:1045800053E8002F511C43E8001000B1F8E714462F
:10459000234618460837BD4690BC704790B482B099
:1045A00000AF78607B6853E8002F511E43E800108D
:1045B00000B1F8E71446234618460837BD4690BCBC
:1045C000704790B482B000AF78607B6853E8002FEA
:1045D00012B9BFF32F8F04E0116843E8001000B157
:1045E000F4E71446234618460837BD4690BC70478A
:1045F00090B482B000AF786039607B683A6819681F
:104600001160BFF35F8F53E8001F10688842F6D136
:1046100043E8002404B1F2E700BF0837BD4690BC70
:10462000704780B483B000AF78607B6818460C3761
:10463000BD465DF8047B704780B483B000AF7860FE
:104640007B6818460C37BD465DF8047B704780B424
:1046500000AF034B5B691846BD465DF8047B7047AD
:104660001000002080B586B000AFF860B9607A60B5
:104670003B60FB68002B08D0BB68002B05D07B6833
:10468000002B02D03B68002B01D1002332E0FB68F5
:10469000BA681A60FB6800225A60FB687A689A6000
:1046A000FB683A68DA60FB683A685A61BB687A6806
:1046B00002FB03F33A681A44FB681A613B687A68A4
:1046C000B968F868FEF79DF83B687B6108E07A6995
:1046D0007B6813443B617B693A691A603B697B6183
:1046E000BB68013BBB60BB68002BF0D17B6900223B
:1046F0001A60012318461837BD4680BD80B584B0C6
:1047000000AF78607B68002B05D100210020FEF708
:1047100085F8002312E07B6814331846FFF751FF39
:10472000F860FB68002B04D07B6804331846FFF761
:1047300022FFF9687868FEF771F8FB6818461037B1
:10474000BD4680BD80B582B000AF786039607B68BF
:10475000002B09D07B68DB683A689A4204D37B68F7
:104760001B693A689A4208D36FF003023968786887
:10477000FEF75FF86FF0030310E07B6814333968CD
:104780001846FFF735FF7B6804331846FFF706FF2E
:10479000002239687868FEF74CF80023184608377D
:1047A000BD4680BD80B584B000AF78607B689B68F3
:1047B000002B1AD07B680C331846FFF79FFFF86078
:1047C000FB68002B11D07868FFF736FF03461846C8
:1047D00001F046F8B860FB6800221946B86801F09D
:1047E000F3FAF9687868FEF79AFD00BF1037BD4606
:1047F00080BD80B58EB000AFF860B9607A60FB68AC
:10480000002B1CD0BB68002B19D0FB683B613B69B7
:10481000002B01D1202303E03B69B3FA83F3DBB221
:104820001A46BB687B617B69002B01D1202303E022
:104830007B69B3FA83F3DBB213441F2B06D86FF006
:1048400003010020FEF71EFD0023DCE0FB687B6215
:10485000BB68033323F003033B627B6A3A6A02FBC3
:1048600003F3FB617B68002B46D07B681B68BB624F
:104870007B689B687B637B681B693B637B685B69C8
:10488000BB617B6B002B0FD07B6B03F00303002B12
:1048900003D17B68DB68232B11D86FF0080100205F
:1048A000FEF7F0FC0023AEE07B68DB68002B06D04F
:1048B0006FF008010020FEF7E5FC0023A3E03B6B4E
:1048C000002B0FD03B6B03F00303002B03D1BA691D
:1048D000FB699A4216D26FF009010020FEF7D2FC64
:1048E000002390E0BB69002B0CD06FF00901002081
:1048F000FEF7C8FC002386E00023BB6200237B6335
:1049000000233B637B6B002B19D1414BD3F89C30C8
:10491000002B07D03E4BD3F89C301846FFF7EEFE35
:10492000786308E03A4BD3F88030012224211846FE
:10493000FFF702FD7863012387F82F3002E00023A0
:1049400087F82F307B6B002B35D03B6B002B32D19F
:104950002F4B9B6F0022F9691846FFF7EDFC386377
:104960003B6B002B1CD197F82F3003F00103002B79
:1049700013D0274BD3F89C30002B07D0244BD3F80F
:104980009C30796B1846FFF7DDFE06E0204BD3F82C
:104990008030796B1846FFF76BFD00237B6304E0E2
:1049A000FA690021386B06F0FDFC97F82F3043F0D0
:1049B000020387F82F307B6B002B1ED07B6BF72216
:1049C0001A707B6B97F82F209A707B6BBA6A5A60CB
:1049D0007B6B00229A607B6B03F10C003B6B3A6AA5
:1049E000796AFFF73FFE0A4B0A4ADA667B6B5B681F
:1049F0001946786BFEF75DFC04E06FF004010020BF
:104A0000FEF740FC7B6B18463837BD4680BD00BFC3
:104A100010000020A547000080B584B000AF78608A
:104A20007868FFF7FEFDF860FB68002B03D0FB6899
:104A30001B78F72B05D00021F868FEF745FC002312
:104A400007E0FB685B681946F868FEF73DFCFB6809
:104A50005B6818461037BD4680BD90B585B000AF85
:104A6000786039607868FFF7DCFDF860FB68002B40
:104A700003D0FB681B78F72B06D06FF00301F868B2
:104A8000FEF700FC00232FE0FB680C331846FFF70D
:104A900035FEB860BB68002B04D0B968F868FEF733
:104AA0003EFC20E03B68002B1AD03968F868FEF71E
:104AB00021FC3968732001F0AAF90346002B0BD0C2
:104AC000F868FFF7B9FD0446FFF7C1FD0346194634
:104AD000204600F092FE06E0F868FEF716FC02E0C1
:104AE000F868FEF727FCBB6818461437BD4690BD32
:104AF00080B586B000AF786039607868FFF791FDC7
:104B000078617B69002B03D07B691B78F72B07D07A
:104B10006FF003017869FEF7B5FB6FF0030332E035
:104B20007B690C3339681846FFF70CFE38613B6926
:104B3000002B23D139687869FEF711FC7B699B68EB
:104B4000002B1FD07B690C331846FFF7D7FDF860A8
:104B5000FB68002B16D07869FFF76EFD03461846F8
:104B600000F07EFEB860FB6801221946B86801F0CB
:104B70002BF9F9687869FEF7D2FB03E039687869A8
:104B8000FEF7F8FB3B6918461837BD4680BD80B577
:104B900084B000AF78607868FFF743FDF860FB6889
:104BA000002B03D0FB681B78F72B05D00021F86899
:104BB000FEF7EBFB002307E0FB68DB681946F868AB
:104BC000FEF7E3FBFB68DB6818461037BD4680BD87
:104BD00080B584B000AF78607868FFF722FDF86098
:104BE000FB68002B03D0FB681B78F72B05D0002156
:104BF000F868FEF7D5FB002307E0FB685B69194600
:104C0000F868FEF7CDFBFB685B6918461037BD46B8
:104C100080BD80B584B000AF78607868FFF701FD93
:104C2000F860FB68002B03D0FB681B78F72B05D0DE
:104C30000021F868FEF7BFFB002307E0FB681B6953
:104C40001946F868FEF7B7FBFB681B691846103772
:104C5000BD4680BD80B584B000AF78607868FFF74E
:104C6000E0FCF860FB68002B03D0FB681B78F72B97
:104C700005D00021F868FEF7A9FB00230DE0FB68D2
:104C8000DA68FB681B69D31A1946F868FEF79EFBC1
:104C9000FB68DA68FB681B69D31A18461037BD46F3
:104CA00080BD80B584B000AF78607868FFF7B9FC4C
:104CB000F860FB68002B03D0FB681B78F72B07D04C
:104CC0006FF00301F868FEF7DDFA6FF0030346E0CA
:104CD000FB689B68002B13D0F868FFF7ADFC034618
:104CE000184600F0BDFDB86000220021B86801F050
:104CF0006BF8FB689B68002BEED1002001F020F8D8
:104D0000FB6800221A70FB689B7803F00203002BFB
:104D100007D0154B9A6FFB689B6919461046FFF741
:104D2000A7FBFB689B7803F00103002B13D00E4B0D
:104D3000D3F89C30002B07D00B4BD3F89C30F9688C
:104D40001846FFF7FFFC06E0074BD3F88030F96800
:104D50001846FFF78DFBF868FEF74DFB0023184659
:104D60001037BD4680BD00BF1000002080B584B064
:104D700000AF786039607868FFF753FCF860FB6833
:104D8000002B06D0FB681B78F72B02D13B68002B69
:104D900006D06FF00301F868FEF774FA002311E003
:104DA000FB680C331846FFF7A9FCB860BB68002B02
:104DB00003D1F868FEF7BEFA03E0B968F868FEF7B9
:104DC000AEFABB6818461037BD4680BD80B584B0CA
:104DD00000AF786039607868FFF723FCF860FB6803
:104DE000002B03D0FB681B78F72B07D06FF0030173
:104DF000F868FEF747FA6FF003031AE0FB680C331C
:104E000039681846FFF79EFCB860BB68002B0BD1D1
:104E1000F868FFF711FC0346184600F047FB3968B5
:104E2000F868FEF79CFA03E03968F868FEF7A2FA22
:104E3000BB6818461037BD4680BD80B588B000AF4E
:104E4000F860B9607A607A68B968F868FEF725FAA0
:104E5000FFF764FB0346002B04D1FFF771FB034609
:104E6000002B07D06FF005010020FEF70BFA00239E
:104E7000FB610EE0FB68BB61BB687B617B683B61EB
:104E8000B86979693B691A46044B9C4600DF0346C2
:104E9000FB61FB6918462037BD4680BDF347000023
:104EA00080B584B000AF7860FFF738FB0346002B75
:104EB00004D1FFF745FB0346002B06D0002178689C
:104EC000FEF702FA0023FB6008E07B68BB60BB686A
:104ED0001846054B9C4600DF0346FB60FB681846FE
:104EE0001037BD4680BD00BF194A000080B586B0AE
:104EF00000AF7860396039687868FEF7F0F9FFF73D
:104F00000DFB0346002B04D1FFF71AFB0346002BD1
:104F100005D039687868FFF729FF78610BE07B6876
:104F20003B613B68FB603B691846F968044B9C4653
:104F300000DF03467B617B6918461837BD4680BD9C
:104F40005B4A000080B586B000AF78603960396890
:104F50007868FEF7F9F9FFF7E1FA0346002B04D170
:104F6000FFF7EEFA0346002B05D039687868FFF7A3
:104F70002DFF78610CE07B683B613B68FB603B691F
:104F80001846FB681946054B9C4600DF03467B61CB
:104F90007B6918461837BD4680BD00BFF14A000046
:104FA00080B584B000AF7860FFF7B8FA0346002BF5
:104FB00004D1FFF7C5FA0346002B04D07868FFF749
:104FC000E6FDF86008E07B68BB60BB681846054BEF
:104FD0009C4600DF0346FB60FB6818461037BD4661
:104FE00080BD00BF8F4B000080B584B000AF7860FB
:104FF000FFF794FA0346002B04D1FFF7A1FA03460A
:10500000002B04D07868FFF7E3FDF86008E07B68C8
:10501000BB60BB681846054B9C4600DF0346FB603F
:10502000FB6818461037BD4680BD00BFD14B00005D
:1050300080B584B000AF7860FFF770FA0346002BAC
:1050400004D1FFF77DFA0346002B04D07868FFF700
:10505000E0FDF86008E07B68BB60BB681846054B64
:105060009C4600DF0346FB60FB6818461037BD46D0
:1050700080BD00BF134C000080B584B000AF7860E5
:10508000FFF74CFA0346002B04D1FFF759FA034609
:10509000002B04D07868FFF7DDFDF86008E07B683E
:1050A000BB60BB681846054B9C4600DF0346FB60AF
:1050B000FB6818461037BD4680BD00BF554C000048
:1050C00080B584B000AF78607868FEF78AF9FFF7A2
:1050D00025FA0346002B04D1FFF732FA0346002BD2
:1050E00008D06FF005017868FEF7CCF86FF0050383
:1050F000FB6008E07B68BB60BB681846044B9C46BD
:1051000000DF0346FB60FB6818461037BD4680BDD4
:10511000A34C000080B400AF044B4FF080525A60A3
:1051200000BFBD465DF8047B704700BF00ED00E0A6
:1051300090B482B000AF78600B467B807B687A8841
:10514000D3E85F1F8A4202D8BFF32F8F04E0481CC8
:10515000C3E8540F04B1F3E78CB22346184608376E
:10516000BD4690BC704790B482B000AF78600B46EB
:105170007B807B687A88D3E85F1F481C824200D816
:105180000020C3E8540F04B1F5E78CB2234618465B
:105190000837BD4690BC704790B482B000AF7860CD
:1051A0007B68D3E85F2F12B9BFF32F8F04E0511E45
:1051B000C3E8501F00B1F4E794B2234618460837FD
:1051C000BD4690BC704780B483B000AF78607B6808
:1051D00018460C37BD465DF8047B704780B483B039
:1051E00000AF78607B6818460C37BD465DF8047BDD
:1051F000704780B483B000AF78607B6818460C3786
:10520000BD465DF8047B704780B483B000AF786022
:105210007B6818460C37BD465DF8047B704780B448
:1052200083B000AF78607B6818460C37BD465DF8E8
:10523000047B704780B483B000AF78607B68184609
:105240000C37BD465DF8047B704780B400AF034B5C
:105250001B7A1846BD465DF8047B7047100000209D
:1052600080B586B000AF7860124BB3F854307B82C3
:105270007B8A19461048FFF75BFF03461A467B8A74
:10528000934210D97B8A19460C48FFF76CFF0346FE
:10529000FB60084BDA6DFB689B0013447A681A6068
:1052A00001237B6101E000237B617B69184618378D
:1052B000BD4680BD10000020660000206800002070
:1052C00080B584B000AF114BB3F854307B811048E7
:1052D000FFF762FF0346002B11D07B8919460D486A
:1052E000FFF741FF03467B60084BDA6D7B689B004C
:1052F00013441B681846FFF766FFF86001E00023BF
:10530000FB60FB6818461037BD4680BD10000020CA
:10531000660000206A00002080B582B000AF02F075
:1053200013FE324BDB680133304AD36000F000FCDF
:10533000002000F005FD2D4B1B6D002B02D02B4BE8
:105340001B6D9847294B1B6C002B4AD0274B9B6940
:105350007B60264BDB6B7A689A420AD0234A7B68D3
:10536000D3637B68DB69002B03D1204B1A6C7B680D
:10537000DA617B68DB69002B04D07B68DB695A1E2D
:105380007B68DA617B68DB69002B2AD1FFF75DFF60
:105390000346022B25D1154B5B6A7B607B68002B93
:1053A0001FD07B6893F92020104BDB6B93F92030E2
:1053B0009A4216D1786800F0A9FA0C4BDB6B1846BC
:1053C00000F0E8FA094BDB6B1846FDF702FC786841
:1053D00000F0A2FC054A7B68D363044B1A6C7B681F
:1053E000DA6100BF0837BD4680BD00BF1000002055
:1053F00090B583B000AFFFF763FF78607B68002B48
:1054000049D07B681B78F13B082B42D801A252F8A7
:1054100023F000BF39540000935400004B540000A7
:1054200093540000935400005D5400006F5400003A
:1054300093540000815400001B4B1C6E7868FFF7EA
:10544000CDFE03461846A04724E0174B5C6E7868F3
:10545000FFF7CFFE03461846A0471BE0124B9C6E99
:105460007868FFF7D1FE03461846A04712E00E4BBE
:10547000DC6E7868FFF7D3FE03461846A04709E0C4
:10548000094B1C6F7868FFF7D5FE03461846A04706
:1054900000E000BFAFE700BF002000F051FC00BFFC
:1054A0000C37BD4690BD00BF1000002080B582B013
:1054B00000AF78607868FFF7D3FE0346002B0BD06F
:1054C000094B5B7ADBB2002B02D1FFF723FE07E02A
:1054D000054B01229A7203E079680220FEF7DDFC99
:1054E00000BF0837BD4680BD1000002080B483B0E7
:1054F00000AF03460A46FB711346BB714FF0807341
:1055000018460C37BD465DF8047B704780B483B005
:1055100000AF0346FB71FB7903F01003002B01D1B0
:10552000602300E0202318460C37BD465DF8047B5D
:10553000704780B483B000AFEFF305837B607B6876
:10554000002B14BF01230023DBB218460C37BD46E5
:105550005DF8047B704780B483B000AFEFF3108335
:105560007B607B68002B05D1EFF311833B603B68C8
:10557000002B01D0012300E0002303F00103DBB284
:1055800018460C37BD465DF8047B704790B482B076
:1055900000AF786039607B683A6853E8000F40EAF2
:1055A000020143E8001404B1F7E70C46234618460D
:1055B0000837BD4690BC704790B482B000AF7860A9
:1055C00039607B683A6853E8001F21EA020043E82B
:1055D000000404B1F7E70C46234618460837BD46D9
:1055E00090BC704790B482B000AF786039607B683F
:1055F0003A6853E8001F01EA0200904203D0BFF36B
:105600002F8F002105E021EA020043E8000404B1E5
:10561000EFE70C46234618460837BD4690BC704756
:1056200090B482B000AF786039607B683A6853E824
:10563000001F114203D1BFF32F8F002105E021EAA3
:10564000020043E8000404B1F1E70C462346184683
:105650000837BD4690BC704780B483B000AF786017
:105660007B6818460C37BD465DF8047B704780B4F4
:1056700083B000AF78607B6818460C37BD465DF894
:10568000047B704780B483B000AF78607B681846B5
:105690000C37BD465DF8047B704780B483B000AF23
:1056A00078607B6818460C37BD465DF8047B704710
:1056B00080B485B000AF78607B685B7803F00F033F
:1056C000FB73FB7B18461437BD465DF8047B7047BF
:1056D00080B483B000AF78607B6893F920301846BF
:1056E0000C37BD465DF8047B704780B400AF034BB8
:1056F0001B7A1846BD465DF8047B704710000020F9
:1057000080B400AF034B5B691846BD465DF8047B6F
:10571000704700BF1000002080B483B000AF7860F5
:10572000044A7B68536100BF0C37BD465DF8047BBB
:10573000704700BF1000002080B584B000AF7860D3
:1057400039607B68283339681846FFF71FFFF86017
:10575000FB6818461037BD4680BD80B584B000AFE9
:10576000786039607B68283339681846FFF724FF72
:10577000F860FB6818461037BD4680BD80B586B01E
:1057800000AFF860B9607A607B6803F00203002B19
:1057900014D17B6803F00103002B07D0FB6828338A
:1057A000B9681846FFF71EFF786121E0FB682833CF
:1057B000B9681846FFF734FF786119E0FB689B6A07
:1057C0007B617B6803F00103002B05D07A69BB681D
:1057D0001340BA689A4209D17B6803F00103002B99
:1057E00006D17A69BB681340002B01D100237B618D
:1057F0007B6918461837BD4680BD80B586B000AFBE
:10580000786039603B6893F92030FB607868FFF777
:1058100039FF78617B699B683B6104E03B697B6190
:105820003B699B683B613B69002B06D03B6993F960
:1058300020301A46FB689342F0DD3B687A69DA60F3
:105840003B683A699A607B693A689A603B69002BC9
:1058500002D03B693A68DA6000BF1837BD4680BDA8
:1058600090B585B000AF78607B689B68FB60FB6893
:105870009A687B689A60FB689B68002B06D0FB687F
:105880009C687868FFF7FEFE0346E360FB68002231
:10589000DA60FB6818461437BD4690BD80B485B009
:1058A00000AF78607B68FB6002E0FB68DB68FB6050
:1058B000FB681B78F12BF8D0FB6818461437BD46FF
:1058C0005DF8047B704780B584B000AF78607B687A
:1058D000FB6002E0FB68DB68FB60FB68002B03D029
:1058E000FB681B78F12BF5D0F868FFF7C0FEB860B5
:1058F000BB68002B06D0786800F008F87968B868B3
:10590000FFF77BFF00BF1037BD4680BD80B483B07A
:1059100000AF78607B68DB68002B10D07B68DB68A9
:105920007A6892689A607B689B68002B04D07B68D9
:105930009B687A68D268DA607B680022DA6000BF10
:105940000C37BD465DF8047B704780B483B000AF70
:10595000786039603B689B68002B04D03B689B688B
:105960003A68D268DA603B68DB68002B08D03B6895
:10597000DB683A6892689A603B680022DA6003E06C
:105980003B689A687B681A6000BF0C37BD465DF8BB
:10599000047B704780B582B000AF78607B680122DD
:1059A0005A7079680348FFF728FF00BF0837BD46E3
:1059B00080BD00BF2C00002080B485B000AF7860AF
:1059C00039603B68B3F1FF3F21D10023FB602E4BD0
:1059D0001B6BBB6004E0BB68FB60BB681B69BB6002
:1059E000BB68002BF7D17B683A68DA617B68FA689C
:1059F0005A617B6800221A61FB68002B03D0FB68A8
:105A00007A681A613AE0204A7B68136336E0002323
:105A1000FB601D4BDB6ABB6009E0BB68DB693A6871
:105A2000D31A3B60BB68FB60BB681B69BB60BB688B
:105A3000002B04D0BB68DB693A689A42EDD27B68E0
:105A40003A68DA617B68FA685A617B68BA681A61F9
:105A5000FB68002B03D0FB687A681A6102E00A4AEF
:105A60007B68D362BB68002B08D0BB68DA693B68EF
:105A7000D21ABB68DA61BB687A685A6100BF143712
:105A8000BD465DF8047B70471000002080B483B0F1
:105A900000AF78607B68DB69B3F1FF3F1AD17B68A8
:105AA0001B69002B04D07B681B697A6852695A61B4
:105AB0007B685B69002B08D07B685B697A68126938
:105AC0001A617B6800225A6127E07B681B69174ACC
:105AD000136322E07B681B69002B0DD07B681B6978
